{
  "contractName": "Challenge",
  "abi": [
    {
      "anonymous": false,
      "inputs": [
        {
          "indexed": true,
          "internalType": "address",
          "name": "user",
          "type": "address"
        },
        {
          "indexed": false,
          "internalType": "uint256",
          "name": "id",
          "type": "uint256"
        }
      ],
      "name": "newFavorite",
      "type": "event"
    },
    {
      "inputs": [],
      "name": "count",
      "outputs": [
        {
          "internalType": "uint256",
          "name": "",
          "type": "uint256"
        }
      ],
      "stateMutability": "view",
      "type": "function",
      "constant": true
    },
    {
      "inputs": [
        {
          "internalType": "address",
          "name": "",
          "type": "address"
        },
        {
          "internalType": "uint256",
          "name": "",
          "type": "uint256"
        }
      ],
      "name": "favoriteRepos",
      "outputs": [
        {
          "internalType": "uint256",
          "name": "",
          "type": "uint256"
        }
      ],
      "stateMutability": "view",
      "type": "function",
      "constant": true
    },
    {
      "inputs": [],
      "name": "get",
      "outputs": [
        {
          "internalType": "uint256",
          "name": "",
          "type": "uint256"
        }
      ],
      "stateMutability": "view",
      "type": "function",
      "constant": true
    },
    {
      "inputs": [
        {
          "internalType": "uint256",
          "name": "favId",
          "type": "uint256"
        }
      ],
      "name": "setFavorite",
      "outputs": [],
      "stateMutability": "payable",
      "type": "function",
      "payable": true
    },
    {
      "inputs": [],
      "name": "getUserFavorites",
      "outputs": [
        {
          "internalType": "uint256[]",
          "name": "",
          "type": "uint256[]"
        }
      ],
      "stateMutability": "view",
      "type": "function",
      "constant": true
    }
  ],
  "bytecode": "0x6080604052600560005534801561001557600080fd5b506104fb806100256000396000f3fe60806040526004361061004a5760003560e01c806306661abd1461004f5780634b24c0a91461007a57806352ce061c146100965780636d4ce63c146100d3578063d800df5e146100fe575b600080fd5b34801561005b57600080fd5b50610064610129565b60405161007191906102ce565b60405180910390f35b610094600480360381019061008f919061031a565b61012f565b005b3480156100a257600080fd5b506100bd60048036038101906100b891906103a5565b6101e6565b6040516100ca91906102ce565b60405180910390f35b3480156100df57600080fd5b506100e8610217565b6040516100f591906102ce565b60405180910390f35b34801561010a57600080fd5b50610113610220565b60405161012091906104a3565b60405180910390f35b60005481565b600160003373ffffffffffffffffffffffffffffffffffffffff1673ffffffffffffffffffffffffffffffffffffffff1681526020019081526020016000208190806001815401808255809150506001900390600052602060002001600090919091909150553373ffffffffffffffffffffffffffffffffffffffff167f269f631f073a304686e63484126a2c23de4accd6bb9ba4fbbfd7be48b24e3699826040516101db91906102ce565b60405180910390a250565b6001602052816000526040600020818154811061020257600080fd5b90600052602060002001600091509150505481565b60008054905090565b6060600160003373ffffffffffffffffffffffffffffffffffffffff1673ffffffffffffffffffffffffffffffffffffffff1681526020019081526020016000208054806020026020016040519081016040528092919081815260200182805480156102ab57602002820191906000526020600020905b815481526020019060010190808311610297575b5050505050905090565b6000819050919050565b6102c8816102b5565b82525050565b60006020820190506102e360008301846102bf565b92915050565b600080fd5b6102f7816102b5565b811461030257600080fd5b50565b600081359050610314816102ee565b92915050565b6000602082840312156103305761032f6102e9565b5b600061033e84828501610305565b91505092915050565b600073ffffffffffffffffffffffffffffffffffffffff82169050919050565b600061037282610347565b9050919050565b61038281610367565b811461038d57600080fd5b50565b60008135905061039f81610379565b92915050565b600080604083850312156103bc576103bb6102e9565b5b60006103ca85828601610390565b92505060206103db85828601610305565b9150509250929050565b600081519050919050565b600082825260208201905092915050565b6000819050602082019050919050565b61041a816102b5565b82525050565b600061042c8383610411565b60208301905092915050565b6000602082019050919050565b6000610450826103e5565b61045a81856103f0565b935061046583610401565b8060005b8381101561049657815161047d8882610420565b975061048883610438565b925050600181019050610469565b5085935050505092915050565b600060208201905081810360008301526104bd8184610445565b90509291505056fea26469706673582212208d4e613bc3c460ce679f56acf5ab9711acde18fed42959bd3b5eb68abc92d7a164736f6c634300080b0033",
  "immutableReferences": {},
  "source": "// SPDX-License-Identifier: MIT\npragma solidity ^0.8.7;\n\ncontract Challenge {\n    uint public count = 5;\n\n    mapping(address => uint[]) public favoriteRepos;\n\n    event newFavorite(address indexed user, uint id);\n\n    // Function to get the current count\n    function get() public view returns (uint) {\n        return count;\n    }\n\n    function setFavorite(uint favId) public payable {\n\n        favoriteRepos[msg.sender].push(favId);\n        emit newFavorite(msg.sender, favId);\n    }\n    \n    function getUserFavorites() public view returns (uint[] memory) {\n      return favoriteRepos[msg.sender];\n  }\n}\n",
  "sourcePath": "/Users/danmilgram/Documents/Dan/trending-repos-ui/client/contracts/Challenge.sol",
  "compiler": {
    "name": "solc",
    "version": "0.8.11+commit.d7f03943.Emscripten.clang"
  },
  "schemaVersion": "3.4.4",
  "updatedAt": "2022-02-11T13:33:51.116Z",
  "networkType": "ethereum",
  "devdoc": {
    "kind": "dev",
    "methods": {},
    "version": 1
  },
  "userdoc": {
    "kind": "user",
    "methods": {},
    "version": 1
  }
}