{
  "contractName": "Favourites",
  "abi": [
    {
      "anonymous": false,
      "inputs": [
        {
          "indexed": true,
          "internalType": "address",
          "name": "user",
          "type": "address"
        },
        {
          "indexed": false,
          "internalType": "uint256",
          "name": "id",
          "type": "uint256"
        }
      ],
      "name": "newFavorite",
      "type": "event"
    },
    {
      "inputs": [
        {
          "internalType": "address",
          "name": "",
          "type": "address"
        },
        {
          "internalType": "uint256",
          "name": "",
          "type": "uint256"
        }
      ],
      "name": "favouriteRepos",
      "outputs": [
        {
          "internalType": "uint256",
          "name": "",
          "type": "uint256"
        }
      ],
      "stateMutability": "view",
      "type": "function",
      "constant": true
    },
    {
      "inputs": [
        {
          "internalType": "uint256",
          "name": "favId",
          "type": "uint256"
        }
      ],
      "name": "setFavorite",
      "outputs": [],
      "stateMutability": "payable",
      "type": "function",
      "payable": true
    },
    {
      "inputs": [
        {
          "internalType": "uint256",
          "name": "favId",
          "type": "uint256"
        }
      ],
      "name": "unsetFavorite",
      "outputs": [],
      "stateMutability": "payable",
      "type": "function",
      "payable": true
    },
    {
      "inputs": [],
      "name": "getUserFavourites",
      "outputs": [
        {
          "internalType": "uint256[]",
          "name": "",
          "type": "uint256[]"
        }
      ],
      "stateMutability": "view",
      "type": "function",
      "constant": true
    }
  ],
  "bytecode": "0x608060405234801561001057600080fd5b50610670806100206000396000f3fe60806040526004361061003f5760003560e01c80630787b2ea146100445780631ac36b01146100605780634b24c0a91461008b5780636f54265c146100a7575b600080fd5b61005e600480360381019061005991906103be565b6100e4565b005b34801561006c57600080fd5b50610075610208565b60405161008291906104a9565b60405180910390f35b6100a560048036038101906100a091906103be565b61029c565b005b3480156100b357600080fd5b506100ce60048036038101906100c99190610529565b610352565b6040516100db9190610578565b60405180910390f35b60005b6000803373ffffffffffffffffffffffffffffffffffffffff1673ffffffffffffffffffffffffffffffffffffffff16815260200190815260200160002080549050811015610204576000803373ffffffffffffffffffffffffffffffffffffffff1673ffffffffffffffffffffffffffffffffffffffff16815260200190815260200160002081815481106101805761017f610593565b5b90600052602060002001548214156101f1576000803373ffffffffffffffffffffffffffffffffffffffff1673ffffffffffffffffffffffffffffffffffffffff16815260200190815260200160002081815481106101e2576101e1610593565b5b90600052602060002001600090555b80806101fc906105f1565b9150506100e7565b5050565b60606000803373ffffffffffffffffffffffffffffffffffffffff1673ffffffffffffffffffffffffffffffffffffffff16815260200190815260200160002080548060200260200160405190810160405280929190818152602001828054801561029257602002820191906000526020600020905b81548152602001906001019080831161027e575b5050505050905090565b6000803373ffffffffffffffffffffffffffffffffffffffff1673ffffffffffffffffffffffffffffffffffffffff1681526020019081526020016000208190806001815401808255809150506001900390600052602060002001600090919091909150553373ffffffffffffffffffffffffffffffffffffffff167f269f631f073a304686e63484126a2c23de4accd6bb9ba4fbbfd7be48b24e3699826040516103479190610578565b60405180910390a250565b6000602052816000526040600020818154811061036e57600080fd5b90600052602060002001600091509150505481565b600080fd5b6000819050919050565b61039b81610388565b81146103a657600080fd5b50565b6000813590506103b881610392565b92915050565b6000602082840312156103d4576103d3610383565b5b60006103e2848285016103a9565b91505092915050565b600081519050919050565b600082825260208201905092915050565b6000819050602082019050919050565b61042081610388565b82525050565b60006104328383610417565b60208301905092915050565b6000602082019050919050565b6000610456826103eb565b61046081856103f6565b935061046b83610407565b8060005b8381101561049c5781516104838882610426565b975061048e8361043e565b92505060018101905061046f565b5085935050505092915050565b600060208201905081810360008301526104c3818461044b565b905092915050565b600073ffffffffffffffffffffffffffffffffffffffff82169050919050565b60006104f6826104cb565b9050919050565b610506816104eb565b811461051157600080fd5b50565b600081359050610523816104fd565b92915050565b600080604083850312156105405761053f610383565b5b600061054e85828601610514565b925050602061055f858286016103a9565b9150509250929050565b61057281610388565b82525050565b600060208201905061058d6000830184610569565b92915050565b7f4e487b7100000000000000000000000000000000000000000000000000000000600052603260045260246000fd5b7f4e487b7100000000000000000000000000000000000000000000000000000000600052601160045260246000fd5b60006105fc82610388565b91507fffffffffffffffffffffffffffffffffffffffffffffffffffffffffffffffff82141561062f5761062e6105c2565b5b60018201905091905056fea2646970667358221220c76dc6df7375949e712688379d72b8dc8c2128424d02d9bead867bbeb464a86864736f6c634300080b0033",
  "immutableReferences": {},
  "source": "// SPDX-License-Identifier: MIT\npragma solidity ^0.8.7;\n\ncontract Favourites {\n    mapping(address => uint[]) public favouriteRepos;\n\n    event newFavorite(address indexed user, uint id);\n\n\n    function setFavorite(uint favId) public payable {\n        favouriteRepos[msg.sender].push(favId);\n        emit newFavorite(msg.sender, favId);\n    }\n\n    function unsetFavorite(uint favId) public payable {\n\n        for (uint j = 0; j < favouriteRepos[msg.sender].length; j++) {\n            if (favId == favouriteRepos[msg.sender][j]){\n              delete favouriteRepos[msg.sender][j];\n            }\n        }\n    }    \n    \n    function getUserFavourites() public view returns (uint[] memory) {\n      return favouriteRepos[msg.sender];\n  }\n}\n",
  "sourcePath": "/Users/danmilgram/Documents/Dan/trending-repos-ui/client/contracts/Favourites.sol",
  "compiler": {
    "name": "solc",
    "version": "0.8.11+commit.d7f03943.Emscripten.clang"
  },
  "schemaVersion": "3.4.4",
  "updatedAt": "2022-02-11T18:53:54.718Z",
  "networkType": "ethereum",
  "devdoc": {
    "kind": "dev",
    "methods": {},
    "version": 1
  },
  "userdoc": {
    "kind": "user",
    "methods": {},
    "version": 1
  }
}